{
  "_format": "hh-sol-artifact-1",
  "contractName": "MyNFT",
  "sourceName": "contracts/MyNFT.sol",
  "abi": [
    {
      "inputs": [],
      "stateMutability": "nonpayable",
      "type": "constructor"
    },
    {
      "inputs": [
        {
          "internalType": "address",
          "name": "sender",
          "type": "address"
        },
        {
          "internalType": "uint256",
          "name": "tokenId",
          "type": "uint256"
        },
        {
          "internalType": "address",
          "name": "owner",
          "type": "address"
        }
      ],
      "name": "ERC721IncorrectOwner",
      "type": "error"
    },
    {
      "inputs": [
        {
          "internalType": "address",
          "name": "operator",
          "type": "address"
        },
        {
          "internalType": "uint256",
          "name": "tokenId",
          "type": "uint256"
        }
      ],
      "name": "ERC721InsufficientApproval",
      "type": "error"
    },
    {
      "inputs": [
        {
          "internalType": "address",
          "name": "approver",
          "type": "address"
        }
      ],
      "name": "ERC721InvalidApprover",
      "type": "error"
    },
    {
      "inputs": [
        {
          "internalType": "address",
          "name": "operator",
          "type": "address"
        }
      ],
      "name": "ERC721InvalidOperator",
      "type": "error"
    },
    {
      "inputs": [
        {
          "internalType": "address",
          "name": "owner",
          "type": "address"
        }
      ],
      "name": "ERC721InvalidOwner",
      "type": "error"
    },
    {
      "inputs": [
        {
          "internalType": "address",
          "name": "receiver",
          "type": "address"
        }
      ],
      "name": "ERC721InvalidReceiver",
      "type": "error"
    },
    {
      "inputs": [
        {
          "internalType": "address",
          "name": "sender",
          "type": "address"
        }
      ],
      "name": "ERC721InvalidSender",
      "type": "error"
    },
    {
      "inputs": [
        {
          "internalType": "uint256",
          "name": "tokenId",
          "type": "uint256"
        }
      ],
      "name": "ERC721NonexistentToken",
      "type": "error"
    },
    {
      "anonymous": false,
      "inputs": [
        {
          "indexed": true,
          "internalType": "address",
          "name": "owner",
          "type": "address"
        },
        {
          "indexed": true,
          "internalType": "address",
          "name": "approved",
          "type": "address"
        },
        {
          "indexed": true,
          "internalType": "uint256",
          "name": "tokenId",
          "type": "uint256"
        }
      ],
      "name": "Approval",
      "type": "event"
    },
    {
      "anonymous": false,
      "inputs": [
        {
          "indexed": true,
          "internalType": "address",
          "name": "owner",
          "type": "address"
        },
        {
          "indexed": true,
          "internalType": "address",
          "name": "operator",
          "type": "address"
        },
        {
          "indexed": false,
          "internalType": "bool",
          "name": "approved",
          "type": "bool"
        }
      ],
      "name": "ApprovalForAll",
      "type": "event"
    },
    {
      "anonymous": false,
      "inputs": [
        {
          "indexed": true,
          "internalType": "address",
          "name": "from",
          "type": "address"
        },
        {
          "indexed": true,
          "internalType": "address",
          "name": "to",
          "type": "address"
        },
        {
          "indexed": true,
          "internalType": "uint256",
          "name": "tokenId",
          "type": "uint256"
        }
      ],
      "name": "Transfer",
      "type": "event"
    },
    {
      "inputs": [
        {
          "internalType": "address",
          "name": "to",
          "type": "address"
        },
        {
          "internalType": "uint256",
          "name": "tokenId",
          "type": "uint256"
        }
      ],
      "name": "approve",
      "outputs": [],
      "stateMutability": "nonpayable",
      "type": "function"
    },
    {
      "inputs": [
        {
          "internalType": "address",
          "name": "owner",
          "type": "address"
        }
      ],
      "name": "balanceOf",
      "outputs": [
        {
          "internalType": "uint256",
          "name": "",
          "type": "uint256"
        }
      ],
      "stateMutability": "view",
      "type": "function"
    },
    {
      "inputs": [
        {
          "internalType": "uint256",
          "name": "tokenId",
          "type": "uint256"
        }
      ],
      "name": "getApproved",
      "outputs": [
        {
          "internalType": "address",
          "name": "",
          "type": "address"
        }
      ],
      "stateMutability": "view",
      "type": "function"
    },
    {
      "inputs": [
        {
          "internalType": "address",
          "name": "owner",
          "type": "address"
        },
        {
          "internalType": "address",
          "name": "operator",
          "type": "address"
        }
      ],
      "name": "isApprovedForAll",
      "outputs": [
        {
          "internalType": "bool",
          "name": "",
          "type": "bool"
        }
      ],
      "stateMutability": "view",
      "type": "function"
    },
    {
      "inputs": [
        {
          "internalType": "address",
          "name": "to",
          "type": "address"
        }
      ],
      "name": "mintNFT",
      "outputs": [],
      "stateMutability": "nonpayable",
      "type": "function"
    },
    {
      "inputs": [],
      "name": "name",
      "outputs": [
        {
          "internalType": "string",
          "name": "",
          "type": "string"
        }
      ],
      "stateMutability": "view",
      "type": "function"
    },
    {
      "inputs": [
        {
          "internalType": "uint256",
          "name": "tokenId",
          "type": "uint256"
        }
      ],
      "name": "ownerOf",
      "outputs": [
        {
          "internalType": "address",
          "name": "",
          "type": "address"
        }
      ],
      "stateMutability": "view",
      "type": "function"
    },
    {
      "inputs": [
        {
          "internalType": "address",
          "name": "from",
          "type": "address"
        },
        {
          "internalType": "address",
          "name": "to",
          "type": "address"
        },
        {
          "internalType": "uint256",
          "name": "tokenId",
          "type": "uint256"
        }
      ],
      "name": "safeTransferFrom",
      "outputs": [],
      "stateMutability": "nonpayable",
      "type": "function"
    },
    {
      "inputs": [
        {
          "internalType": "address",
          "name": "from",
          "type": "address"
        },
        {
          "internalType": "address",
          "name": "to",
          "type": "address"
        },
        {
          "internalType": "uint256",
          "name": "tokenId",
          "type": "uint256"
        },
        {
          "internalType": "bytes",
          "name": "data",
          "type": "bytes"
        }
      ],
      "name": "safeTransferFrom",
      "outputs": [],
      "stateMutability": "nonpayable",
      "type": "function"
    },
    {
      "inputs": [
        {
          "internalType": "address",
          "name": "operator",
          "type": "address"
        },
        {
          "internalType": "bool",
          "name": "approved",
          "type": "bool"
        }
      ],
      "name": "setApprovalForAll",
      "outputs": [],
      "stateMutability": "nonpayable",
      "type": "function"
    },
    {
      "inputs": [
        {
          "internalType": "bytes4",
          "name": "interfaceId",
          "type": "bytes4"
        }
      ],
      "name": "supportsInterface",
      "outputs": [
        {
          "internalType": "bool",
          "name": "",
          "type": "bool"
        }
      ],
      "stateMutability": "view",
      "type": "function"
    },
    {
      "inputs": [],
      "name": "symbol",
      "outputs": [
        {
          "internalType": "string",
          "name": "",
          "type": "string"
        }
      ],
      "stateMutability": "view",
      "type": "function"
    },
    {
      "inputs": [],
      "name": "tokenCounter",
      "outputs": [
        {
          "internalType": "uint256",
          "name": "",
          "type": "uint256"
        }
      ],
      "stateMutability": "view",
      "type": "function"
    },
    {
      "inputs": [
        {
          "internalType": "uint256",
          "name": "tokenId",
          "type": "uint256"
        }
      ],
      "name": "tokenURI",
      "outputs": [
        {
          "internalType": "string",
          "name": "",
          "type": "string"
        }
      ],
      "stateMutability": "view",
      "type": "function"
    },
    {
      "inputs": [
        {
          "internalType": "address",
          "name": "from",
          "type": "address"
        },
        {
          "internalType": "address",
          "name": "to",
          "type": "address"
        },
        {
          "internalType": "uint256",
          "name": "tokenId",
          "type": "uint256"
        }
      ],
      "name": "transferFrom",
      "outputs": [],
      "stateMutability": "nonpayable",
      "type": "function"
    }
  ],
  "bytecode": "0x60806040523480156200001157600080fd5b5060405180604001604052806005815260200164135e53919560da1b815250604051806040016040528060048152602001631353919560e21b81525081600090816200005e919062000122565b5060016200006d828262000122565b5050600060065550620001ee565b634e487b7160e01b600052604160045260246000fd5b600181811c90821680620000a657607f821691505b602082108103620000c757634e487b7160e01b600052602260045260246000fd5b50919050565b601f8211156200011d576000816000526020600020601f850160051c81016020861015620000f85750805b601f850160051c820191505b81811015620001195782815560010162000104565b5050505b505050565b81516001600160401b038111156200013e576200013e6200007b565b62000156816200014f845462000091565b84620000cd565b602080601f8311600181146200018e5760008415620001755750858301515b600019600386901b1c1916600185901b17855562000119565b600085815260208120601f198616915b82811015620001bf578886015182559484019460019091019084016200019e565b5085821015620001de5787850151600019600388901b60f8161c191681555b5050505050600190811b01905550565b61100080620001fe6000396000f3fe608060405234801561001057600080fd5b50600436106100f55760003560e01c80636352211e11610097578063b88d4fde11610066578063b88d4fde146101ff578063c87b56dd14610212578063d082e38114610225578063e985e9c51461022e57600080fd5b80636352211e146101b057806370a08231146101c357806395d89b41146101e4578063a22cb465146101ec57600080fd5b8063095ea7b3116100d3578063095ea7b31461016257806323b872dd1461017757806342842e0e1461018a57806354ba0f271461019d57600080fd5b806301ffc9a7146100fa57806306fdde0314610122578063081812fc14610137575b600080fd5b61010d610108366004610c49565b610241565b60405190151581526020015b60405180910390f35b61012a610293565b6040516101199190610cb6565b61014a610145366004610cc9565b610325565b6040516001600160a01b039091168152602001610119565b610175610170366004610cfe565b61034e565b005b610175610185366004610d28565b61035d565b610175610198366004610d28565b6103ed565b6101756101ab366004610d64565b61040d565b61014a6101be366004610cc9565b610431565b6101d66101d1366004610d64565b61043c565b604051908152602001610119565b61012a610484565b6101756101fa366004610d7f565b610493565b61017561020d366004610dd1565b61049e565b61012a610220366004610cc9565b6104b5565b6101d660065481565b61010d61023c366004610ead565b61052a565b60006001600160e01b031982166380ac58cd60e01b148061027257506001600160e01b03198216635b5e139f60e01b145b8061028d57506301ffc9a760e01b6001600160e01b03198316145b92915050565b6060600080546102a290610ee0565b80601f01602080910402602001604051908101604052809291908181526020018280546102ce90610ee0565b801561031b5780601f106102f05761010080835404028352916020019161031b565b820191906000526020600020905b8154815290600101906020018083116102fe57829003601f168201915b5050505050905090565b600061033082610558565b506000828152600460205260409020546001600160a01b031661028d565b610359828233610591565b5050565b6001600160a01b03821661038c57604051633250574960e11b8152600060048201526024015b60405180910390fd5b600061039983833361059e565b9050836001600160a01b0316816001600160a01b0316146103e7576040516364283d7b60e01b81526001600160a01b0380861660048301526024820184905282166044820152606401610383565b50505050565b6104088383836040518060200160405280600081525061049e565b505050565b61041981600654610697565b6006805490600061042983610f1a565b919050555050565b600061028d82610558565b60006001600160a01b038216610468576040516322718ad960e21b815260006004820152602401610383565b506001600160a01b031660009081526003602052604090205490565b6060600180546102a290610ee0565b6103593383836106b1565b6104a984848461035d565b6103e784848484610750565b60606104c082610558565b5060006104d860408051602081019091526000815290565b905060008151116104f85760405180602001604052806000815250610523565b8061050284610879565b604051602001610513929190610f41565b6040516020818303038152906040525b9392505050565b6001600160a01b03918216600090815260056020908152604080832093909416825291909152205460ff1690565b6000818152600260205260408120546001600160a01b03168061028d57604051637e27328960e01b815260048101849052602401610383565b610408838383600161090c565b6000828152600260205260408120546001600160a01b03908116908316156105cb576105cb818486610a12565b6001600160a01b03811615610609576105e860008560008061090c565b6001600160a01b038116600090815260036020526040902080546000190190555b6001600160a01b03851615610638576001600160a01b0385166000908152600360205260409020805460010190555b60008481526002602052604080822080546001600160a01b0319166001600160a01b0389811691821790925591518793918516917fddf252ad1be2c89b69c2b068fc378daa952ba7f163c4a11628f55a4df523b3ef91a4949350505050565b610359828260405180602001604052806000815250610a76565b6001600160a01b0382166106e357604051630b61174360e31b81526001600160a01b0383166004820152602401610383565b6001600160a01b03838116600081815260056020908152604080832094871680845294825291829020805460ff191686151590811790915591519182527f17307eab39ab6107e8899845ad3d59bd9653f200f220920489ca2b5937696c31910160405180910390a3505050565b6001600160a01b0383163b156103e757604051630a85bd0160e11b81526001600160a01b0384169063150b7a0290610792903390889087908790600401610f70565b6020604051808303816000875af19250505080156107cd575060408051601f3d908101601f191682019092526107ca91810190610fad565b60015b610836573d8080156107fb576040519150601f19603f3d011682016040523d82523d6000602084013e610800565b606091505b50805160000361082e57604051633250574960e11b81526001600160a01b0385166004820152602401610383565b805181602001fd5b6001600160e01b03198116630a85bd0160e11b1461087257604051633250574960e11b81526001600160a01b0385166004820152602401610383565b5050505050565b6060600061088683610a8d565b600101905060008167ffffffffffffffff8111156108a6576108a6610dbb565b6040519080825280601f01601f1916602001820160405280156108d0576020820181803683370190505b5090508181016020015b600019016f181899199a1a9b1b9c1cb0b131b232b360811b600a86061a8153600a85049450846108da57509392505050565b808061092057506001600160a01b03821615155b156109e257600061093084610558565b90506001600160a01b0383161580159061095c5750826001600160a01b0316816001600160a01b031614155b801561096f575061096d818461052a565b155b156109985760405163a9fbf51f60e01b81526001600160a01b0384166004820152602401610383565b81156109e05783856001600160a01b0316826001600160a01b03167f8c5be1e5ebec7d5bd14f71427d1e84f3dd0314c0f7b2291e5b200ac8c7c3b92560405160405180910390a45b505b5050600090815260046020526040902080546001600160a01b0319166001600160a01b0392909216919091179055565b610a1d838383610b65565b610408576001600160a01b038316610a4b57604051637e27328960e01b815260048101829052602401610383565b60405163177e802f60e01b81526001600160a01b038316600482015260248101829052604401610383565b610a808383610bcb565b6104086000848484610750565b60008072184f03e93ff9f4daa797ed6e38ed64bf6a1f0160401b8310610acc5772184f03e93ff9f4daa797ed6e38ed64bf6a1f0160401b830492506040015b6d04ee2d6d415b85acef81000000008310610af8576d04ee2d6d415b85acef8100000000830492506020015b662386f26fc100008310610b1657662386f26fc10000830492506010015b6305f5e1008310610b2e576305f5e100830492506008015b6127108310610b4257612710830492506004015b60648310610b54576064830492506002015b600a831061028d5760010192915050565b60006001600160a01b03831615801590610bc35750826001600160a01b0316846001600160a01b03161480610b9f5750610b9f848461052a565b80610bc357506000828152600460205260409020546001600160a01b038481169116145b949350505050565b6001600160a01b038216610bf557604051633250574960e11b815260006004820152602401610383565b6000610c038383600061059e565b90506001600160a01b03811615610408576040516339e3563760e11b815260006004820152602401610383565b6001600160e01b031981168114610c4657600080fd5b50565b600060208284031215610c5b57600080fd5b813561052381610c30565b60005b83811015610c81578181015183820152602001610c69565b50506000910152565b60008151808452610ca2816020860160208601610c66565b601f01601f19169290920160200192915050565b6020815260006105236020830184610c8a565b600060208284031215610cdb57600080fd5b5035919050565b80356001600160a01b0381168114610cf957600080fd5b919050565b60008060408385031215610d1157600080fd5b610d1a83610ce2565b946020939093013593505050565b600080600060608486031215610d3d57600080fd5b610d4684610ce2565b9250610d5460208501610ce2565b9150604084013590509250925092565b600060208284031215610d7657600080fd5b61052382610ce2565b60008060408385031215610d9257600080fd5b610d9b83610ce2565b915060208301358015158114610db057600080fd5b809150509250929050565b634e487b7160e01b600052604160045260246000fd5b60008060008060808587031215610de757600080fd5b610df085610ce2565b9350610dfe60208601610ce2565b925060408501359150606085013567ffffffffffffffff80821115610e2257600080fd5b818701915087601f830112610e3657600080fd5b813581811115610e4857610e48610dbb565b604051601f8201601f19908116603f01168101908382118183101715610e7057610e70610dbb565b816040528281528a6020848701011115610e8957600080fd5b82602086016020830137600060208483010152809550505050505092959194509250565b60008060408385031215610ec057600080fd5b610ec983610ce2565b9150610ed760208401610ce2565b90509250929050565b600181811c90821680610ef457607f821691505b602082108103610f1457634e487b7160e01b600052602260045260246000fd5b50919050565b600060018201610f3a57634e487b7160e01b600052601160045260246000fd5b5060010190565b60008351610f53818460208801610c66565b835190830190610f67818360208801610c66565b01949350505050565b6001600160a01b0385811682528416602082015260408101839052608060608201819052600090610fa390830184610c8a565b9695505050505050565b600060208284031215610fbf57600080fd5b815161052381610c3056fea2646970667358221220212a9817651a94a9ad65e7a7c23342c5560a7585cb98dd2604a1bbe67804ebd964736f6c63430008180033",
  "linkReferences": {},
  "deployedLinkReferences": {}
}