{
  "_format": "hh-sol-artifact-1",
  "contractName": "MyVault",
  "sourceName": "contracts/MyVault.sol",
  "abi": [
    {
      "inputs": [
        {
          "internalType": "address",
          "name": "_tokenAddress",
          "type": "address"
        },
        {
          "internalType": "address",
          "name": "_nftContractAddress",
          "type": "address"
        }
      ],
      "stateMutability": "nonpayable",
      "type": "constructor"
    },
    {
      "inputs": [],
      "name": "MINT_THRESHOLD",
      "outputs": [
        {
          "internalType": "uint256",
          "name": "",
          "type": "uint256"
        }
      ],
      "stateMutability": "view",
      "type": "function"
    },
    {
      "inputs": [
        {
          "internalType": "uint256",
          "name": "amount",
          "type": "uint256"
        }
      ],
      "name": "deposit",
      "outputs": [],
      "stateMutability": "nonpayable",
      "type": "function"
    },
    {
      "inputs": [
        {
          "internalType": "address",
          "name": "",
          "type": "address"
        }
      ],
      "name": "deposits",
      "outputs": [
        {
          "internalType": "uint256",
          "name": "",
          "type": "uint256"
        }
      ],
      "stateMutability": "view",
      "type": "function"
    },
    {
      "inputs": [
        {
          "internalType": "address",
          "name": "",
          "type": "address"
        }
      ],
      "name": "hasMinted",
      "outputs": [
        {
          "internalType": "bool",
          "name": "",
          "type": "bool"
        }
      ],
      "stateMutability": "view",
      "type": "function"
    },
    {
      "inputs": [],
      "name": "nftContract",
      "outputs": [
        {
          "internalType": "contract MyNFT",
          "name": "",
          "type": "address"
        }
      ],
      "stateMutability": "view",
      "type": "function"
    },
    {
      "inputs": [],
      "name": "token",
      "outputs": [
        {
          "internalType": "contract IERC20",
          "name": "",
          "type": "address"
        }
      ],
      "stateMutability": "view",
      "type": "function"
    }
  ],
  "bytecode": "0x608060405234801561001057600080fd5b5060405161048a38038061048a83398101604081905261002f9161007c565b600080546001600160a01b039384166001600160a01b031991821617909155600180549290931691161790556100af565b80516001600160a01b038116811461007757600080fd5b919050565b6000806040838503121561008f57600080fd5b61009883610060565b91506100a660208401610060565b90509250929050565b6103cc806100be6000396000f3fe608060405234801561001057600080fd5b50600436106100625760003560e01c8063134551281461006757806338e21cce1461008b578063b6b55f25146100be578063d56d229d146100d3578063fc0c546a146100fe578063fc7e286d14610111575b600080fd5b61007869021e19e0c9bab240000081565b6040519081526020015b60405180910390f35b6100ae610099366004610304565b60036020526000908152604090205460ff1681565b6040519015158152602001610082565b6100d16100cc366004610334565b610131565b005b6001546100e6906001600160a01b031681565b6040516001600160a01b039091168152602001610082565b6000546100e6906001600160a01b031681565b61007861011f366004610304565b60026020526000908152604090205481565b600081116101865760405162461bcd60e51b815260206004820152601d60248201527f416d6f756e74206d7573742062652067726561746572207468616e203000000060448201526064015b60405180910390fd5b6000546040516323b872dd60e01b8152336004820152306024820152604481018390526001600160a01b03909116906323b872dd906064016020604051808303816000875af11580156101dd573d6000803e3d6000fd5b505050506040513d601f19601f82011682018060405250810190610201919061034d565b6102455760405162461bcd60e51b8152602060048201526015602482015274151bdad95b881d1c985b9cd9995c8819985a5b1959605a1b604482015260640161017d565b336000908152600260205260408120805483929061026490849061036f565b90915550503360009081526002602052604090205469021e19e0c9bab240000011610301576001546040516354ba0f2760e01b81523360048201526001600160a01b03909116906354ba0f2790602401600060405180830381600087803b1580156102ce57600080fd5b505af11580156102e2573d6000803e3d6000fd5b5050336000908152600360205260409020805460ff1916600117905550505b50565b60006020828403121561031657600080fd5b81356001600160a01b038116811461032d57600080fd5b9392505050565b60006020828403121561034657600080fd5b5035919050565b60006020828403121561035f57600080fd5b8151801515811461032d57600080fd5b8082018082111561039057634e487b7160e01b600052601160045260246000fd5b9291505056fea2646970667358221220ebd4fcdaee6c4ba1a4b269b6870bf98bfd3393a918fd1703f94b6cb35c4cdd9264736f6c63430008180033",
  "linkReferences": {},
  "deployedLinkReferences": {}
}